:020000040000FA
:02000000F42BDF
:1003E00003340034831205150511080083128514A7
:1003F0008510080064008001840A04060319003493
:100400000406FB298312C000640083169C18042A8A
:100410008312400883169B003F308312BF003F08C1
:1004200083169C051C141A0808008312051E342A22
:100430003D08031D342ABD01BD0A0630D407031848
:10044000D50A0030D5075508803ADF0080305F02BA
:10045000031D2C2A27305402031C0800033083128A
:10046000D4000030D5000800051A0800BD010800BE
:100470008312C000C101C20183124008BF00410ABB
:10048000432A0310BF0CFF3E031D412A3F1C4B2A89
:10049000831205144D2A83120510F22101308312B4
:1004A000C1070318C20A0030C2074208803ADF00C1
:1004B00080305F02031D5E2A0830410203180800E5
:1004C0003C2A8312851E872A3C08031D872ABC010B
:1004D000BC0ABB01BB0A3A08031D712ABA01BA0A59
:1004E000782ABA010130B8070318B90A0030B907F1
:1004F0003908803ADF0080305F02031D812A053011
:100500003802031C08008312B801B9010800851ADB
:100510000800BC01080030308316850007308312C4
:10052000990085012030A2000030A300A001A101A4
:100530001030A6000030A7002030A4000030A50035
:100540000830AA000030AB003030A8000030A9000D
:100550002030AE000030AF003830AC000030AD00CD
:100560002030B2000030B3005830B0000030B1008D
:1005700008008B2283123808C30001300310C30D1A
:10058000FF3E031DBE2A0310430D203E840083134B
:100590000008D200840A0008D300112B520802225E
:1005A0008312C3004308BE003E0838220130831284
:1005B000D2070318D30A0030D3075208022283124D
:1005C000C3004308BE003E08382201308312D20720
:1005D0000318D30A0030D307F621152261228312B3
:1005E000CC01CD014D08803AC3005508803A430242
:1005F000031DFC2A54084C0203180F2B07308312EA
:10060000C4007D30C300C30B032BC40B032B01308C
:100610008312CC070318CD0A0030CD07F22A152229
:10062000612283123808C30001300310C30DFF3E5E
:10063000031D152B0310430D223E84008313000875
:10064000C400840A0008C5003808C6000130031041
:10065000C60DFF3E031D272B0310460D203E8400D0
:100660000008C700840A0008C80044084707C900FA
:1006700045080318450A4807CA005308803ACB00CA
:100680004A08803A4B02031D472B490852020318BF
:100690004D2B83123B080319CE2A83123A08031DFF
:1006A000542B8312BB01BA2A3808C300013003104F
:1006B000C30DFF3E031D572B0310430D223E840044
:1006C00083130008C400840A0008C5003808C60067
:1006D00001300310C60DFF3E031D692B0310460DAC
:1006E000203E84000008C700840A0008C8004408AF
:1006F0004707C90045080318450A4807CA004908C2
:10070000FD3ED0004A080318013EFF3ED10083128F
:100710003808C30001300310C30DFF3E031D8B2BAF
:100720000310430D203E840083130008C400840A94
:100730000008C5004408023EC60045080318013EF3
:10074000003EC7005108803AC8004708803A480276
:10075000031DAC2B46085002031C512B83123B088F
:10076000031D512B3B08031D512B5008FF3E022255
:100770008312C3004308BE003E083822831250088B
:1007800002228312C3004308BE003E083822FE3016
:100790008312D0070318D10AFF30D107F6211522A2
:1007A00061228312CE01CF014F08803AC300550861
:1007B000803A4302031DDE2B54084E020318F12B2E
:1007C00007308312C4007D30C300C30BE52BC40B7C
:1007D000E52B01308312CE070318CF0A0030CF0774
:1007E000D42B15226122872BF021D400F121D500D2
:0E07F0008313203084003F30FA218301B92AA0
:02400E009431EB
:1042000080000000400000002000000010000000BE
:10421000080000000400000002000000010000008F
:10422000000080000000400000002000000010009E
:10423000000008000000040000000200000001006F
:10424000800001004000020020000400100008006F
:10425000080010000400200002004000010080005F
:104260008800880044004400220022001100110050
:1042700080000100C0000300E0000700F0000F0014
:10428000F8001F00FC003F00FE007F00FF00FF0061
:104290007F00FE003F00FC001F00F8000F00F00050
:1042A0000700E0000300C0000100800000000000E3
:1042B000000030000000140000000900400004006D
:1042C00010000200040001008100000040004000D6
:1042D000200010001000040008000100440000004D
:1042E00012000000050000000100800000004000F6
:00000001FF
